:020000040800F2
:10000000907400245104000821600008F959000888
:10001000095F0008F30A0008CD790008000000001D
:100020000000000000000000000000008D03000838
:10003000F70A000800000000E9030008ED6200086C
:100040006F0400086F0400086F0400086F040008C4
:100050006F0400086F0400086F0400086F040008B4
:100060006F0400086F0400086F0400086F040008A4
:100070006F0400086F0400086F0400086F04000894
:100080006F0400086F0400086F040008590B000893
:100090006F040008690B00086F0400086F04000873
:1000A0006F040008256400086F0400086F0400084E
:1000B00035640008456400086F0400086F040008F8
:1000C0006F0400086F0400086F0400086F04000844
:1000D0006F0400085D7600086D7600086F04000864
:1000E0006F0400086F040008000000006F0400089F
:1000F0006F0400086F0400086F0400086F04000814
:100100006F0400086F0400086F0400086F04000803
:100110006F0400086F0400086F0400086F040008F3
:100120006F0400086F0400086F0400086F040008E3
:100130006F0400086F0400086F0400086F040008D3
:1001400000000000000000000000000000000000AF
:100150006F0400086F0400086F0400086F040008B3
:100160006F0400086F0400086F0400086F040008A3
:100170006F0400086F0400086F040008000000000E
:100180006F0400086F0400086F0400086F04000883
:100190006F0400086F0400086F0400086F04000873
:1001A0006F0400086F0400086F0400086F04000863
:1001B0006F0400086F0400086F0400086F04000853
:1001C0006F0400086F0400086F0400086F04000843
:1001D0006F0400086F0400086F0400086F04000833
:1001E0006F0400086F0400086F0400086F04000823
:1001F0006F0400086F0400086F0400086F04000813
:100200006F0400086F0400086F0400086F04000802
:100210006F0400086F0400086F0400086F040008F2
:100220006F0400086F0400086F040008000000005D
:100230006F0400086F040008000000006F0400084D
:100240006F0400086F0400086F0400086F040008C2
:100250006F0400086F0400086F0400086F040008B2
:100260006F0400086F0400086F0400086F040008A2
:100270006F0400086F0400086F040008000000000D
:100280006F0400086F0400086F04000800000000FD
:10029000000000006F04000800F002F800F066F8AB
:1002A0000AA090E8000C82448344AAF10107DA45D1
:1002B00001D100F05BF8AFF2090EBAE80F0013F0BD
:1002C000010F18BFFB1A43F0010318477CA7000079
:1002D0009CA700000A444FF0000C10F8013B13F0FB
:1002E000070408BF10F8014B1D1108BF10F8015B8F
:1002F000641E05D010F8016B641E01F8016BF9D182
:1003000013F0080F1EBF10F8014BAD1C0C1B09D1D8
:100310006D1E58BF01F801CBFAD505E014F8016B4A
:1003200001F8016B6D1EF9D59142D6D370470000DC
:100330000023002400250026103A28BF78C1FBD8EE
:10034000520728BF30C148BF0B607047752900F0C5
:100350004F81782900F08881002070471FB50AF08E
:10036000A3FA00F0F7FA1FBD10B510BD00F08CFB2A
:100370001146FFF7F3FF09F0D1F800F0AAFB03B430
:10038000FFF7F2FF03BC00F0ADFB00002D4B196836
:100390000868B0E8F04F80F30988BFF36F8F4FF023
:1003A000000080F3118870470000000008480068D2
:1003B000006880F308884FF0000080F3148862B66C
:1003C00061B6BFF34F8FBFF36F8F00DF00BF00BF79
:1003D00008ED00E0DFF80C00016841F470010160F5
:1003E000704700BF88ED00E0EFF30980BFF36F8F27
:1003F000144B1A681EF0100F08BF20ED108A20E978
:10040000F04F106009B44FF0200072B680F31188ED
:10041000BFF34F8FBFF36F8F62B609F0F5FD4FF05A
:10042000000080F3118809BC19680868B0E8F04F33
:100430001EF0100F08BFB0EC108A80F30988BFF3DC
:100440006F8F70473C000024EFF305807047000079
:100450000A4880470A4880470A480047FEE7FEE707
:10046000FEE7FEE7FEE7FEE7FEE7FEE7FEE7FEE764
:1004700005480649064A074B70470000350B00083F
:10048000FD62000899020008906E00249074002418
:10049000907000249070002453EA020C00F06980F0
:1004A0002DE9F04B4FF00006002B1FBFB3FA83F588
:1004B00003FA05F424FA05F65E4012BF1643B2FAB9
:1004C00082F502FA05F4C5F120051EBF22FA05FCEB
:1004D00044EA0C04203556EA044C4FEA144418BF91
:1004E000641C4FF000084FF00009904271EB030CC0
:1004F00039D3002919BFB1FA81F701FA07F6B0FA2A
:1005000080F700FA07F6C7F120071EBF20FA07FCA4
:1005100046EA0C062037B6FBF4FCA7EB0507103FB4
:1005200007F01F0BCBF120060CFA0BFB2CFA06F69A
:1005300044BFB3460026202FA4BF5E464FF0000BF9
:100540005BEA060C08BF4FF0010B19EB0B09ABFB84
:10055000027C48EB0608C01B06FB02CC0BFB03CC5D
:1005600071EB0C01C1E70B46024641464846BDE827
:10057000F08B13B54FF000004FF00001AFF3008097
:10058000BDE81C40704700000FB4044910B503AA31
:10059000029800F063FA10BC5DF814FB7C000024A4
:1005A00070B5044685690068C10601D5302600E0B3
:1005B0002026C00707D070BDD4E9012130469047FE
:1005C000206A401C20626D1EF6D570BD70B50446D1
:1005D00085690078C00707D170BDD4E901212020CA
:1005E0009047206A401C20626D1EF6D570BD000049
:1005F0002DE9F0410646002410687529314616A5FC
:1006000010D0AFF30080002802DA404213A507E0C3
:1006100031688A0701D512A502E0490704D511A562
:10062000012401E0AFF3008000210A2206F1240733
:1006300009E0B0FBF2FCB0FBF2F302FB1C0030302F
:1006400078541846491C0028F3D123462A463046E0
:10065000BDE8F04100F090B9000000002D0000005E
:100660002B0000002000000070B504460D46214616
:100670001068AFF300802188090502D50F4A7A443B
:1006800002E00E4A7A440E32002104F1240305E010
:1006900000F00F060009965D5E54491C0028F7D152
:1006A00020780023000704D5702D02D009B1022361
:1006B00011322046BDE8704000F05EB9D6A20000BD
:1006C0002DE9F05F894604464FF0000ADFF874B167
:1006D000FB44C0F820A02046E1688847002874D079
:1006E000252806D0D4E901219047206A401C2062C9
:1006F000F1E700265F462046E16888472028054646
:1007000007DB312D05D2781910F8200C08B106430B
:10071000F1E7B00701D526F00406C4F81CA00027B5
:10072000C4F818A02A2D09D0284608F0DFFE38B3F7
:1007300004EB8708303DC8F8185019E059F8041B3D
:10074000204604EB87029161E1688847012F054646
:1007500018D1E069002820DA26F020061DE0D8F83C
:10076000180000EB800005EB40003038C8F8180096
:100770002046E1688847054608F0B8FE0028EED11B
:10078000012F0AD02E2D08D12046E16888477F1C12
:100790000546022F46F02006C4DBA069002803DAD4
:1007A000404246F00106A061F00701D026F0100695
:1007B0006C2D0BD0682D09D04C2D39D06A2D35D039
:1007C000742D35D07A2D33D016E038E0E1682F460D
:1007D00020468847B842054609D16C2F26D04FF4F1
:1007E0008060E168064320468847054604E06C2F98
:1007F0001AD04FF4807006430DB3A5F141001928BB
:1008000002D8203546F400664A462946204626602E
:100810004E46FFF79BFD80B101280BD0F61D26F058
:10082000070000F1080956E74020E4E78020D8E7F8
:100830000020D6E706F104094DE7284652E7206A72
:10084000BDE8F09FACA2000010B5203AC0F00B80CC
:10085000B1E81850203AA0E81850B1E81850A0E8C4
:100860001850BFF4F5AF5FEA027C24BFB1E818501E
:10087000A0E8185044BF18C918C0BDE810405FEA8E
:10088000827C24BF51F8043B40F8043B08BF70470A
:10089000D20728BF31F8023B48BF11F8012B28BF0F
:1008A00020F8023B48BF00F8012B704702F0FF031D
:1008B00043EA032242EA024200F002B84FF000028B
:1008C0000429C0F0128010F0030C00F01B80CCF162
:1008D000040CBCF1020F18BF00F8012BA8BF20F8D0
:1008E000022BA1EB0C0100F00DB85FEAC17C24BF24
:1008F00000F8012B00F8012B48BF00F8012B7047CE
:100900004FF0000200B5134694469646203922BFA8
:10091000A0E80C50A0E80C50B1F12001BFF4F7AFF3
:10092000090728BFA0E80C5048BF0CC05DF804EBD5
:10093000890028BF40F8042B08BF704748BF20F843
:10094000022B11F0804F18BF00F8012B7047704741
:100950007047704770B5064C7C44064D7D4403E0FB
:10096000206820448047241DAC42F9D170BD0000AE
:100970000CA100000CA100002DE9F0470D4699469E
:100980009246044600F124080168880604D5E0690F
:1009900021F01001216000E00120A84201DD471B89
:1009A00000E00027A1697A1902EB0900081AA0618A
:1009B0002078C00602D42046FFF7F2FD002608E0AA
:1009C000D4E901211AF806009047206A401C761CE1
:1009D00020624E45F4DB2078C0060AD52046FFF79A
:1009E000DFFD06E0D4E9012130209047206A401C59
:1009F0002062381EA7F10107F4DC07E0D4E90121E9
:100A000018F805009047206A401C2062281EA5F1B6
:100A10000105F3DC2046FFF7D9FD2078000602D55A
:100A20000220BDE8F0870120FBE7000001694A1CB5
:100A300002610878704700B58FB0CDE9013100211F
:100A4000059105497944CDE9031011466846FFF741
:100A500037FE0FB000BD0000E5FFFFFF074B70B58C
:100A60000D467B44FFF7E7FF0446284608F045FDA6
:100A700010B14FF0FF3070BD204670BD9B8A000062
:100A800000487047306E00247546FFF7F9FFAE4608
:100A900005006946534620F00700854618B020B58A
:100AA000FFF7E6FCBDE820404FF000064FF00007DE
:100AB0004FF000084FF0000B21F00701AC46ACE806
:100AC000C009ACE8C009ACE8C009ACE8C0098D4673
:100AD000704710B50446AFF300802046BDE81040D3
:100AE000FFF74DBC01491820ABBEFEE7260002000F
:100AF000704700BFFEE7704710B5044604EB840062
:100B00000121C1EB4000074909684862054804F02B
:100B100033F800BF044800780028FBD000200249C9
:100B2000087010BD846700248000002472B600BFE6
:100B3000FEE700000748006840F002000549086031
:100B400000BF04480838006800F400500028F8D0BE
:100B5000704700000C48025810B5024800F0D4FF5E
:100B600010BD00009866002410B5024800F0CCFFCC
:100B700010BD00009866002410B501464A6B086855
:100B8000D0F884004FF6FC74A04340EA82000C6861
:100B9000C4F884000868D0F8840020F47F04088F2B
:100BA00044EA00400C68C4F88400886B024408687A
:100BB000D0F888004FF6FC74A04340EA82000C682D
:100BC000C4F888000868D0F8880020F4FE04888FF4
:100BD00044EA00400C68C4F88800C86B02EB40028D
:100BE0000868D0F8A0004FF6FC74A04340EA8200E9
:100BF0000C68C4F8A0000868D0F8A00020F4FE0437
:100C00004020405A44EA00400C68C4F8A000D1E9F2
:100C1000104004FB00220868D0F8B0004FF6FC74C6
:100C2000A04340EA82000C68C4F8B0000868D0F81D
:100C3000B00020F4FE04B1F8480044EA00400C681B
:100C4000C4F8B000D1E9124004FB00220868D0F8D3
:100C5000AC004FF6FC74A04340EA82000C68C4F874
:100C6000AC00D1E9144004FB00220868D0F8F00081
:100C70004FF6FC74A04340EA82000C68C4F8F00010
:100C80000868D0F8F00020F47C14B1F8580044EA69
:100C900000400C68C4F8F000886D02EB4002086860
:100CA000D0F8C0004FF6FC74A04340EA82000C6804
:100CB000C4F8C0000868D0F8C00020F47C14B1F873
:100CC0005C0044EA00400C68C4F8C0000868D0F832
:100CD000C00020F07C5491F8600044EA00600C6889
:100CE000C4F8C0002A4C486B04EB8000C866CC6E88
:100CF000886B04EB80040C670C6FC86B04EBC004BA
:100D00004C67D1E9100460434C6F04EB80048C679E
:100D1000D1E9120460438C6F04EB8004CC67D1E905
:100D200014046043CC6F04EB80048020445044588A
:100D3000886D04EBC004842044508C6EC86D604301
:100D40008424645804EB8004882044508C6E086E20
:100D500060438824645804EB800490204450405839
:100D60000C4CA04209D99831486840F020004860F6
:100D7000032001F89809012010BDCB6E02E000208D
:100D800018601B1D902040589842F8D80020F3E7C7
:100D900000AC0040FCD300402DE9F041054614466C
:100DA0001E46D1F804C0BCF1000F0AD1D1F810C022
:100DB000D1F808804CEA080CB1F800804CEA88436E
:100DC0000BE0D1F810C04CF0804CD1F808804CEA10
:100DD000080CD1F800804CEA080391F82080D1F883
:100DE0001CC04CEA086CD1F818804CEA080CD1F809
:100DF00014804CEA080CB1F80C804CEA0847D5F88E
:100E000068C00CFB06FCD5F8848008EB8C021360EC
:100E1000121D1760121D002019E000F1030C14F8D8
:100E20000CC04FEA0C6800F1020C14F80CC048EA40
:100E30000C4800F1010C14F80CC048EA0C2C14F812
:100E400000804CEA080CC2F800C0121D001DDFF83B
:100E50001480D1F80CC018F80CC08445DDD8BDE86A
:100E6000F0810000B4A800082DE9F041044601F02B
:100E7000BFFB804614B90120BDE8F08194F835002D
:100E8000022808D08020606500BF002084F834006C
:100E900000BF0120F0E7FE492068884249D0FC49A4
:100EA00018312068884244D0F9493031206888429E
:100EB0003FD0F7494831206888423AD0F449603140
:100EC0002068884235D0F24978312068884230D095
:100ED000EF499031206888422BD0ED49A831206835
:100EE000884226D0EB492068884222D0E94918314F
:100EF000206888421DD0E74930312068884218D0E8
:100F0000E44948312068884213D0E24960312068C2
:100F100088420ED0DF4978312068884209D0DD4907
:100F200090312068884204D0DA49A831206888428C
:100F300001D1012000E0002068B12068006820F0A5
:100F40001E00216808602068406920F08000216848
:100F50004861256806E02068006820F00E002168DE
:100F600008602568CA492068884270D0C84918318D
:100F7000206888426BD0C64930312068884266D0EC
:100F8000C34948312068884261D0C1496031206836
:100F900088425CD0BE4978312068884257D0BC492D
:100FA00090312068884252D0B949A83120688842DF
:100FB0004DD0B8492068884249D0B64918312068D8
:100FC000884244D0B3493031206888423FD0B1498B
:100FD0004831206888423AD0AE4960312068884262
:100FE00035D0AC4978312068884230D0A949903159
:100FF000206888422BD0A749A8312068884226D093
:10100000A5492068884222D0A3491431206888422B
:101010001DD0A14928312068884218D09E493C3112
:101020002068884213D09C495031206888420ED0F5
:10103000994964312068884209D0974978312068FD
:10104000884204D094498C312068884201D1012023
:1010500000E0002028B1206E006820F48070216E2E
:1010600008608B492068884249D089491831206836
:10107000884244D086493031206888423FD0844934
:101080004831206888423AD08149603120688842DE
:1010900035D07F4978312068884230D07C49903102
:1010A000206888422BD07A49A8312068884226D00F
:1010B00078492068884222D07649183120688842D1
:1010C0001DD0744930312068884218D071494831A8
:1010D0002068884213D06F496031206888420ED062
:1010E0006C4978312068884209D06A49903120687B
:1010F000884204D06749A8312068884206D1206818
:10110000006820F001002168086005E020680068A0
:1011100020F001002168086011E001F069FAA0EBFD
:10112000080005280BD920206065032084F83500CD
:1011300000BF002084F8340000BF01209CE628682E
:1011400000F001000028E8D151492068884249D0C8
:101150004F4918312068884244D04D4930312068C9
:1011600088423FD04A494831206888423AD04849AD
:1011700060312068884235D04549783120688842FE
:1011800030D043499031206888422BD04049A83163
:101190002068884226D03F492068884222D03D49B5
:1011A0001831206888421DD03A4930312068884281
:1011B00018D0384948312068884213D03549603109
:1011C000206888420ED0334978312068884209D09F
:1011D000304990312068884204D02E49A8312068D7
:1011E000884201D1012000E0002040B1A66D94F8B2
:1011F0005C0000F01F013F208840B06007E0A76D51
:1012000094F85C0000F01F010120884078602049BC
:101210002068884276D01E4918312068884271D0F3
:101220001B493031206888426CD019494831206808
:10123000884267D0164960312068884262D01449DC
:101240007831206888425DD0114990312068884209
:1012500058D00F49A8312068884253D00D492068E2
:1012600088424FD00B491831206888424AD009493A
:1012700030312068884245D006494831206888428C
:1012800040D004496031206888423BD0014905E0E4
:1012900010000240100402400854025878312068BF
:1012A00088422FD02549206888422BD02349183105
:1012B0002068884226D022492068884222D02049CE
:1012C0001431206888421DD01D4928312068884289
:1012D00018D01B493C312068884213D0184950313E
:1012E000206888420ED0164964312068884209D0AF
:1012F000134978312068884204D011498C31206824
:10130000884201D1012000E0002068B1D4E9191021
:101310004860E06E40B1E06E006820F48070E16EDD
:101320000860D4E91C104860012084F8350000BF33
:10133000002084F8340000BF00BF9DE5A0040240F7
:101340000854025870B504460CB9012070BD94F8D9
:101350003500022803D0802060650120F6E7DC49D3
:101360002068884249D0DA4918312068884244D040
:10137000D7493031206888423FD0D549483120686C
:1013800088423AD0D24960312068884235D0D0496D
:1013900078312068884230D0CD4990312068884229
:1013A0002BD0CB49A8312068884226D0C949206873
:1013B000884222D0C7491831206888421DD0C549CB
:1013C00030312068884218D0C249483120688842AC
:1013D00013D0C0496031206888420ED0BD497831B1
:1013E0002068884209D0BB4990312068884204D0E7
:1013F000B849A8312068884201D1012000E00020CE
:10140000F0B3042084F83500B149206888424BD0FD
:10141000AF4918312068884246D0AD493031206844
:10142000884241D0AA494831206888423CD0A84926
:1014300060312068884237D0A549783120688842D9
:1014400032D0A3499031206888422DD0A049A831DC
:101450002068884228D09F492068884224D09D492E
:101460001831206888421FD09A493031206888425C
:101470001AD0984948312068884215D0954900E033
:1014800020E06031206888420ED09249783120688F
:10149000884209D08F4990312068884204D08D4914
:1014A000A8312068884206D12068006820F0010039
:1014B0002168086009E12068006820F001002168C7
:1014C000086002E12068006820F00E0021680860D2
:1014D0007F492068884249D07D4918312068884278
:1014E00044D07B493031206888423FD07849483128
:1014F000206888423AD0764960312068884235D0E9
:10150000734978312068884230D071499031206821
:1015100088422BD06E49A8312068884226D06D4978
:101520002068884222D06B491831206888421DD03B
:10153000684930312068884218D0664948312068AF
:10154000884213D063496031206888420ED06149D7
:1015500078312068884209D05E49903120688842FD
:1015600004D05C49A8312068884206D12068006810
:1015700020F001002168086005E02068006820F084
:1015800001002168086052492068884270D05049A3
:101590001831206888426BD04D493031206888422C
:1015A00066D04B4948312068884261D04849603153
:1015B000206888425CD0464978312068884257D0FC
:1015C000434990312068884252D04149A83120686F
:1015D00088424DD03F492068884249D03D49183162
:1015E0002068884244D03B493031206888423FD04F
:1015F00038494831206888423AD0364960312068FD
:10160000884235D0334978312068884230D031491A
:101610009031206888422BD02E49A831206888421A
:1016200026D02D492068884222D02B4914312068C9
:1016300088421DD0284928312068884218D0264980
:101640003C312068884213D02349503120688842B9
:101650000ED0214964312068884209D01E49783172
:101660002068884204D01C498C312068884201D10E
:10167000012000E00020D8B1206E006820F48070C6
:10168000216E0860A56D94F85C0000F01F01012038
:1016900088406860D4E919104860E06E40B1E06E9F
:1016A000006820F48070E16E0860D4E91C10486086
:1016B000012084F8350000BF002084F8340000BF0A
:1016C000206D10B12046216D884700203EE60000C5
:1016D00010000240100402400854025830B503467E
:1016E00093F89840012C01D0022C3ED11868806DEF
:1016F000084030B91868C06D40F001001D68E86509
:101700000EE01868806D0840884206D11868C06DE8
:1017100040F002001D68E86502E003201D68E865EE
:1017200001F4007030B11868D0F8E00010431D6873
:10173000C5F8E00001F4806030B11868D0F8E4002A
:1017400010431D68C5F8E40000BF1868406D0B4DDC
:101750000D4028431D6868650948006840EA91709B
:10176000074D286000BF002030BDD3F89C0040F03A
:101770000200C3F89C000120F6E70000FFFFCF3F06
:1017800014A800402DE9F04104460E461746706843
:1017900000B900E000BF94F89800022832D1206818
:1017A000D0F8C00000F07C5040B9D4F89C0040F064
:1017B0002000C4F89C000120BDE8F0812068D0F82A
:1017C000C40000F4001038B1D4F89C0040F400705C
:1017D000C4F89C000120EFE72068D0F8C400C0F3F3
:1017E00004452B463A4631462046FFF7D5FA0120FC
:1017F000A8402168C1F8D0000120A840C4F8940096
:101800000020D9E7D4F89C0040F00800C4F89C0000
:101810000120D1E77047F0B5024692F89860012E9A
:1018200001D0022E43D1C868072800D100BF086844
:1018300018BBC868072800D000BFC86807280BD1AC
:10184000088A4FF0605747EA0040CF6940EA072016
:101850008F6940EA07040AE0087A80070F7B40EAB4
:10186000C7600F8A40EA07404F6940EA0704D76E15
:10187000486807EB80031C6017E0C868072800D0A1
:1018800000BF0F7B086940EA4774C868072801D188
:101890008D6903E00F7A486940EA8775176F4868D9
:1018A00007EBC0031C601B1D1D600020F0BDD2F8BB
:1018B0009C0040F00200C2F89C000120F6E770B5E1
:1018C0000446049D94F8980001280AD1080140EAD2
:1018D000820040EA430028432668C6F880000020C2
:1018E00070BDD4F89C0040F00400C4F89C000120B6
:1018F000F6E7704770B505460C4604F0007028B155
:10190000284600F008FD284600F0EBFC70BD000002
:101910002DE9F04304460D469C46002394F8988038
:10192000B8F1020F74D1402D38D12068D0F8A00052
:1019300000F4FE0040B9D4F89C0040F02000C4F848
:101940009C000120BDE8F0832068D0F8A40000F0DE
:101950007F0038B9D4F89C0040F48070C4F89C0033
:101960000120EFE72068D0F8A400C0F3006040B188
:101970002068D0F8A0004FF00109B9EBD07F00D16A
:1019800001232068D0F8A400C0F305200344606C54
:101990005843D4F8749009EB80014BE0412D38D1C5
:1019A0002068D0F8B00000F4FE0038B9D4F89C00EC
:1019B00040F02000C4F89C000120C3E72068D0F864
:1019C000B40000F07F0038B9D4F89C0040F4807077
:1019D000C4F89C000120B5E72068D0F8B400C0F33B
:1019E000006040B12068D0F8B0004FF00109B9EBB9
:1019F000D07F00D101232068D0F8B400C0F30520C7
:101A00000344E06C5843D4F8789009EB800111E06E
:101A10006DE0206DA84207D8D4F89C0040F020006B
:101A2000C4F89C0001208DE7606D6843D4F87C9079
:101A300009EB8001086800F080405060506820B9D0
:101A40000868C0F38A40106003E0086820F0604036
:101A50001060086800F000509060086800F00040D6
:101A60001061091D088880B2D0610868C0F3034086
:101A7000D060086800F480105061086800F400101D
:101A800090610868C0F3066010620868C00F506279
:101A9000091D0F46002603E0B85D0CF80600761C11
:101AA000DFF85C90D06819F80000B042F4D8402DFF
:101AB00003D12068C0F8A83017E0412D03D1206879
:101AC000C0F8B83011E0202D06D20120A840D4F88B
:101AD0000090C9F8980008E005F01F09012000FAFD
:101AE00009F0D4F80090C9F89C0000202AE7D4F847
:101AF0009C0040F00800C4F89C00012022E7000090
:101B0000B4A80008704700002DE9F04F8DB00446DE
:101B1000EF4800688707EE48001D006807EA8077F5
:101B20002068006D00F470482068406D00EA0808E5
:101B30002068006D00F00F092068406D00EA090977
:101B40002068006D00F0F00A2068406D00EA0A0A83
:101B50002068006D00F0715B2068406D00EA0B0B9F
:101B60002068006D00F060700C902068406D0C994A
:101B700008400C902068456D2068066DC5F3002074
:101B800070B1C6F3002058B100BF4FF480702168D7
:101B900008650020CE49086000BF2046FFF7B2FF6D
:101BA000C5F38020C8B1C6F38020B0B12068D0F85A
:101BB000DC000A902068D0F8E4000A9908400A90F6
:101BC00000BF4FF48060216808650020C0490860AC
:101BD00000BF20460A9900F0F5FB67B100BFBD4881
:101BE000384021680865B80FB949086000BF394618
:101BF0002046FFF70FFEB8F1000F0ED000BFB5482A
:101C000008EA0000216808654FEA9870B04908604A
:101C100000BF4146204600F0D7FBB9F1000F0ED0BF
:101C200000BFAC4809EA0000216808654FEA9970D6
:101C3000A749086000BF4946204600F021FBBAF1E1
:101C4000000F0ED000BFA3480AEA00002168086513
:101C50004FEA9A709E49086000BF5146204600F046
:101C60003FFBC5F3C02070B1C6F3C02058B100BF20
:101C70004FF400602168086500209549086000BFA6
:101C8000204600F0A2FBC5F34020C8B1C6F34020B7
:101C9000B0B12068D0F8D8000B902068D0F8E000F0
:101CA0000B9908400B9000BF4FF400702168086545
:101CB00000208749086000BF20460B9900F083FB95
:101CC000C5F3C04070B1C6F3C04058B100BF4FF477
:101CD00000202168086500207D49086000BF20467B
:101CE00000F0CCFAC5F3004070B1C6F3004058B123
:101CF00000BF4FF4803021680865002074490860F7
:101D000000BF204600F05DFBC5F3804070B1C6F314
:101D1000804058B100BF4FF4802021680865002042
:101D20006B49086000BF204600F04AFBC5F3404005
:101D300088B1C6F3404070B100BF4FF40030216855
:101D4000086500206249086000BFD4F89C0040F09C
:101D50008000C4F89C000C9870B100BF5D490C98DD
:101D60000840216808650C98800F5949086000BF39
:101D700020460C99FFF7BEFDBBF1000F10D000BF4D
:101D800054480BEA0000216808654FEA9B705049EF
:101D9000086000BFD4F89C0040EA0B00C4F89C0027
:101DA0004D49206888427DD16068806800F003005A
:101DB000002877D06068006A00F00F000990606822
:101DC000406A0999084009906068006A00F0300094
:101DD00008906068406A0899084008906068006A46
:101DE00000F4C07007906068406A07990840079047
:101DF0006068006A00F4FC4006906068406A0699DA
:101E0000084006906068006A00F4F0200590606861
:101E1000406A0599084005906068406A02906068D1
:101E2000006A0190099830B10998616808622046FB
:101E3000099900F0C2FA089830B108986168086200
:101E40002046089900F0BBFA0298C0F38010A0B1B8
:101E50000198C0F3801080B16068C06B000C0490E2
:101E60006068C06B00F03F0003904020616808622A
:101E70002046DDE9032100F0A1FA079830B1079868
:101E8000616808622046079900F096FA069840B10A
:101E9000069861680862D4F89C0006990843C4F863
:101EA0009C0000E00AE0059840B10598616808626E
:101EB000D4F89C0005990843C4F89C00D4F89C0011
:101EC00010B12046FFF715FD0DB0BDE8F08F000002
:101ED00010A80040FFFFCF3F00A0004070B594B0B5
:101EE00004464C22B34901A8FEF7AEFC14B9012008
:101EF00014B070BDB0492068884203D1206800F555
:101F000080706060A068B0F5407F00D100BF206C99
:101F100000B100BFA06C00B100BF206D00B100BFD8
:101F2000206E00B100BFD4E91710084400B100BF13
:101F300094F8980028B9002084F89900204600F011
:101F40003DF92068806920F010002168886100F068
:101F50004FFB05460EE000F04BFB401B0A2809D959
:101F60009834606840F001006060032004F898092C
:101F70000120BDE72068806900F008000828EAD049
:101F80002068806940F001002168886100F030FB22
:101F900005460EE000F02CFB401B0A2809D99834B6
:101FA000606840F001006060032004F89809012097
:101FB0009EE72068806900F001000028EAD02068D0
:101FC000806940F0020021688861207C012806D1E8
:101FD0002068806920F040002168886105E0206861
:101FE000806940F0400021688861607C012806D14A
:101FF0002068806940F480402168886105E020689D
:10200000806920F4804021688861A07C012806D185
:102010002068806920F480502168886105E020688C
:10202000806940F48050216888612068806920F4CC
:102030004070A1680843216888612068806920F0A9
:10204000A400216888612068006920F010002168E0
:102050000861E068012806D12068806940F004002A
:102060002168886120E0E068F0B1E068022815D0BE
:102070002068806940F080002168886120680069DC
:1020800040F0100021680861E06803280CD1206846
:10209000806940F020002168886105E0206880693F
:1020A00040F0200021688861207E401E4106E069E2
:1020B000401E41EA0020216A491E0843A18A491EA8
:1020C00040EA01402168C861A068B0F5407F0FD1A7
:1020D000A06A401EE16A491E40EA0121206B401EB1
:1020E00041EA0011A08C401E41EA00402168C8600E
:1020F000206E38B12068D0F8C000616E08432168B6
:10210000C1F8C000D4E91710084460B12068D0F8C5
:10211000C80020F0070001AAA16E52F82110084360
:102120002168C1F8C800206C60B12068D0F8BC00FC
:1021300020F0070001AA616C52F8211008432168C1
:10214000C1F8BC00A06C68B12068D0F8BC0020F0D9
:10215000700101AAE06C52F8200041EA00102168E9
:10216000C1F8BC00206D68B12068D0F8BC0020F434
:10217000E06101AA606D52F8200041EA0020216868
:10218000C1F8BC000C492068884205D160688068AD
:1021900020F0030061688860002044F8940FA0607C
:1021A00001202071943C2046FEF7E6FC06463046AE
:1021B0009EE60000C4A8000800A0004010B5B8B01A
:1021C0000446142132A8FEF79BFBC02102A8FEF7AB
:1021D00097FB27492068884247D14FF400410020EF
:1021E000CDE9021048031E9002A800F0E1FD08B1FD
:1021F000FEF79CFC00BF1F48006840F480701D493A
:1022000008600846006800F48070019000BF00BFBD
:1022100000BF18480C38006840F0080015490C3918
:1022200008600846006800F00800019000BF00BF89
:102230000320329002203390002034903590092002
:10224000369032A90C4800F0C1F800221146132044
:1022500000F0EAFA132000F0D3FA0022114615200C
:1022600000F0E2FA152000F0CBFA38B010BD000003
:1022700000A00040EC440258000C025870470000D7
:1022800070B504460D461348007848B900BF124B9C
:10229000A3F1280240212046FFF73AFB0028F6D0A0
:1022A0000E492068884213D109E00B483038406855
:1022B00028B1094830380849426808309047064B31
:1022C000A3F1280240212046FFF722FB0028ECD092
:1022D00070BD0000D8000024086A002400A000405F
:1022E0007047014691F8980001280CD1022081F82E
:1022F00098000868806920F001000A689061002059
:10230000C1F89C007047D1F89C0040F00400C1F86F
:102310009C000120F6E70146002291F8980002286F
:1023200042D10868806940F001000B6898610CE0B8
:10233000322A09D99831486840F0010048600320EA
:1023400001F8980901207047521C0868806900F064
:1023500001000028ECD000220868806920F01000FD
:102360000B6898610CE0322A09D99831486840F02E
:1023700001004860032001F898090120E3E7521C9E
:102380000868806900F008000828ECD008688069B7
:1023900040F002000B6898610020C1F89400012011
:1023A00081F898000020CEE7D1F89C0040F00800AA
:1023B000C1F89C000120C6E770477047704770471E
:1023C000704770477047704770477047F8B50246CE
:1023D0000B4600216F4DD7E001278F401E6806EAAB
:1023E0000704002C72D01E7906F00306012E04D0DB
:1023F0001E7906F00306022E13D190684F000326C3
:10240000BE40B0434F00DE68BE403043906050682D
:1024100001268E40B0431E79C6F300168E4030432D
:1024200050601E7906F00306032E09D0D0684F00D5
:102430000326BE40B0434F009E68BE403043D0608C
:102440001E7906F00306022E13D1CF0802F12006F2
:1024500056F827004E07F70E0F26BE40B0434F0731
:10246000FF0E1E69BE403043CF0802F1200646F839
:10247000270010684F000326BE40B0431E7906F0C7
:1024800003064F00BE40304310605E6806F44036DD
:10249000002E78D000BF404E366846F002063E4F10
:1024A0003E603E46366806F00206009600BF00BF5A
:1024B0003A4E8F0856F827008E07370F0F26BE407A
:1024C000B043374EB24202D100262EE05BE0354EDB
:1024D000B24201D1012628E0334EB24201D1022698
:1024E00023E0324EB24201D103261EE0304EB2420A
:1024F00001D1042619E02F4EB24201D1052614E085
:102500002D4EB24201D106260FE02C4EB24201D12F
:1025100007260AE02A4EB24201D1082605E0294EDC
:10252000B24201D1092600E00A268F073F0FBE40C4
:1025300030431A4E8F0846F827004FF0B0463068F7
:10254000A0435E6806F4801606B120434FF0B04603
:1025500030607068A0435E6806F4001606B1204340
:102560004FF0B04670606868A0435E6806F40036BD
:1025700006B1204368602868A0435E6806F4803690
:1025800006B120432860491C1E68CE40002E7FF40F
:1025900023AFF8BD80000058F444025808040058E6
:1025A000000002580004025800080258000C0258AB
:1025B000001002580014025800180258001C02585B
:1025C0000020025800240258024613690B400BB148
:1025D000012000E0002070470AB1816101E00B0496
:1025E0008361704701480068000C70470010005C70
:1025F000014800687047000000000024034800689C
:102600000349097808440149086070470000002424
:102610000800002410B5032000F044F901F08CFC00
:1026200010490968C1F303210F4A515C01F01F01F1
:1026300020FA01F40B48006800F00F001146085C16
:1026400000F01F0024FA00F0084908600848046000
:10265000012000F00FF808B1012010BD00F0B8F81B
:102660000020FAE71844025838A900081000002496
:102670000C00002470B58AB00446102C0AD2002247
:102680002146192000F0D0F8192000F0B9F81948B7
:10269000046002E001200AB070BD00BF1648006867
:1026A00040F00100144908600846006800F001008D
:1026B000009000BF00BF01A902A801F0BDFB01F01E
:1026C00029FC45000D48B5FBF0F0461E0C480D49AD
:1026D000086040F2E7310B48C160466000210161AB
:1026E000816002F0D5F918B9064802F045FAD2E740
:1026F0000120D0E704000024F044025840420F00BB
:10270000000001408C6900244178154A1160144989
:102710000831096821F00101114A08321160121FC5
:1027200041681160017B0907C27A41EA0261827A3D
:1027300041EAC241427B41EA8241827B41EA424115
:10274000C27B41EA0241427A41EA0221027A41EA2D
:10275000420102781143024A0832116070470000BA
:1027600098ED00E000BF00BF00BFBFF35F8F00BF68
:1027700000BF00BF0548006820F4803003490860AE
:1027800000200249703108607047000024ED00E02D
:1027900040F001010D4A11600C497039096841F49B
:1027A00080310A4A703A116000BF00BF00BFBFF31A
:1027B0004F8F00BF00BF00BF00BF00BF00BFBFF30F
:1027C0006F8F00BF00BF00BF7047000094ED00E0B6
:1027D00008B500BF0948006840F0020007490860DA
:1027E0000846006800F00200009000BF00BF002211
:1027F0000F21901E00F018F808BD0000F4440258A4
:102800000146084600280DDB00BF00BF00F01F0393
:1028100001229A4043099B0003F1E023C3F8002101
:1028200000BF00BF00BF70472DE9F05F80460D4636
:10283000164606F01FFE074639462A46334601F083
:102840000700C0F1070ABAF1040F02D94FF0040AD9
:1028500001E0C0F1070AD14600F1040ABAF1070FFE
:1028600002D24FF0000A01E0A0F1030AD4464FF073
:10287000010A0AFA09FAAAF1010A0AEA020A0AFA9C
:102880000CFA4FF0010B0BFA0CFBABF1010B0BEA4E
:10289000030B4AEA0B042146404606F0F3FDBDE86F
:1028A000F09F000000BF00F00702064B19684FF6CA
:1028B000FF031940044B0B4343EA0221014B19600B
:1028C00000BF70470CED00E00000FA0570B504464B
:1028D00015480068C0F3800048B91348006800F04C
:1028E0000700A04201D0012070BD0020FCE70E4887
:1028F000006820F0070020430B490860FFF778FECE
:10290000054607E0FFF774FE401BB0F57A7F01D95A
:102910000120E9E7044808380068C0F34030002887
:10292000F0D00020E0E700000C48025810B501F09C
:10293000B9FA05490968C1F30211044A515C01F072
:102940001F01C84010BD00002044025838A90008EB
:1029500070B50146844D2D6805F00303824D2D6846
:10296000C5F30530804D2D1D2D68C5F300147E4D37
:1029700014352D68C5F3CC0515FB04F501EE105A8E
:10298000B8EE411AF0EE410A00286FD023B1012BB6
:102990004ED0022B6BD16BE0734D283D2D68C5F3F3
:1029A00040153DB3704D283D2D68C5F3C1066F4DF0
:1029B00025FA06F201EE102AF8EE411A01EE100A8D
:1029C000B8EE411A81EE812A9FED691AC0EE811A94
:1029D000654D10352D68C5F3080501EE105AB8EEA7
:1029E000411A31EE811AF7EE001A31EE211A22EE69
:1029F000010A1CE001EE100AB8EE411ADFED5D1A83
:102A000081EE812A9FED5A1AC0EE811A564D10357B
:102A10002D68C5F3080501EE105AB8EE411A31EEE3
:102A2000811AF7EE001A31EE211A22EE010A5BE05C
:102A300001EE100AB8EE411ADFED4F1A81EE812A3D
:102A40009FED4B1AC0EE811A474D10352D68C5F326
:102A5000080501EE105AB8EE411A31EE811AF7EE70
:102A6000001A31EE211A22EE010A3DE077E01DE066
:102A700001EE100AB8EE411A9FED402AC2EE011A8B
:102A80009FED3B1A80EE812A374D10352D68C5F336
:102A9000080501EE105AB8EE411A32EE011AB7EEEF
:102AA000002A31EE021A21EE810A1DE001EE100A21
:102AB000B8EE411ADFED301A81EE812A9FED2C1A13
:102AC000C0EE811A284D10352D68C5F3080501EEBA
:102AD000105AB8EE411A31EE811AF7EE001A31EEB3
:102AE000211A22EE010A00BF00BF1F4D10352D68CC
:102AF000C5F3462501EE105AB8EE411AF7EE001A5A
:102B000031EE211AC0EE011ABCEEE11A81ED001A75
:102B1000154D10352D68C5F3064501EE105AB8EE77
:102B2000411AF7EE001A31EE211AC0EE011ABCEE7E
:102B3000E11A81ED011A0C4D10352D68C5F30665BB
:102B400001EE105AB8EE411AF7EE001A31EE211AD2
:102B5000C0EE011ABCEEE11A81ED021A03E0002575
:102B60000D604D608D6070BD284402580090D00308
:102B7000000000460024744C0024744A001B374BAC
:102B800070B50146844D2D6805F00303824D2D6814
:102B9000C5F30550804D2D1D2D68C5F300247E4DD5
:102BA0001C352D68C5F3CC0515FB04F501EE105A54
:102BB000B8EE411AF0EE410A00286FD023B1012B84
:102BC0004ED0022B6BD16BE0734D283D2D68C5F3C1
:102BD00040153DB3704D283D2D68C5F3C1066F4DBE
:102BE00025FA06F201EE102AF8EE411A01EE100A5B
:102BF000B8EE411A81EE812A9FED691AC0EE811A62
:102C0000654D18352D68C5F3080501EE105AB8EE6C
:102C1000411A31EE811AF7EE001A31EE211A22EE36
:102C2000010A1CE001EE100AB8EE411ADFED5D1A50
:102C300081EE812A9FED5A1AC0EE811A564D183541
:102C40002D68C5F3080501EE105AB8EE411A31EEB1
:102C5000811AF7EE001A31EE211A22EE010A5BE02A
:102C600001EE100AB8EE411ADFED4F1A81EE812A0B
:102C70009FED4B1AC0EE811A474D18352D68C5F3EC
:102C8000080501EE105AB8EE411A31EE811AF7EE3E
:102C9000001A31EE211A22EE010A3DE077E01DE034
:102CA00001EE100AB8EE411A9FED402AC2EE011A59
:102CB0009FED3B1A80EE812A374D18352D68C5F3FC
:102CC000080501EE105AB8EE411A32EE011AB7EEBD
:102CD000002A31EE021A21EE810A1DE001EE100AEF
:102CE000B8EE411ADFED301A81EE812A9FED2C1AE1
:102CF000C0EE811A284D18352D68C5F3080501EE80
:102D0000105AB8EE411A31EE811AF7EE001A31EE80
:102D1000211A22EE010A00BF00BF1F4D18352D6891
:102D2000C5F3462501EE105AB8EE411AF7EE001A27
:102D300031EE211AC0EE011ABCEEE11A81ED001A43
:102D4000154D18352D68C5F3064501EE105AB8EE3D
:102D5000411AF7EE001A31EE211AC0EE011ABCEE4C
:102D6000E11A81ED011A0C4D18352D68C5F3066581
:102D700001EE105AB8EE411AF7EE001A31EE211AA0
:102D8000C0EE011ABCEEE11A81ED021A03E0002543
:102D90000D604D608D6070BD284402580090D003D6
:102DA000000000460024744C0024744A001B374B7A
:102DB0002DE9F04104460025A8464FF00062D4E911
:102DC000001011400020134659404040014331D1CA
:102DD000A06E48B1B0F5801F0DD0B0F5001F11D026
:102DE000B0F5401F16D114E0F948006840F40030F7
:102DF000F749086010E0022104F1080003F012F91D
:102E0000054609E0022104F1280003F0BDF905465A
:102E100002E001E0012500BF00BF55B9EC482430B5
:102E2000006820F44010A16E0843E949243108608D
:102E300000E0A8464FF48073D4E900101940002048
:102E40005940404001432ED1A06D05281BD2DFE838
:102E500000F0030A11181900DD48006840F4003042
:102E6000DB49086011E0002104F1080003F0DAF802
:102E700005460AE0002104F1280003F085F9054623
:102E800003E002E001E0012500BF00BF55B9D048D2
:102E90002430006820F00700A16D0843CC4924319C
:102EA000086000E0A8464FF40073D4E90010194010
:102EB000002059404040014334D1E06D802818D0B3
:102EC00003DC40B140281DD10CE0C02818D0B0F57B
:102ED000807F17D115E0BE48006840F40030BC493F
:102EE000086011E0002104F1080003F09BF805469A
:102EF0000AE0002104F1280003F046F9054603E04A
:102F000002E001E0012500BF00BF55B9B048243000
:102F1000006820F4E070E16D0843AD492431086099
:102F200000E0A8464FF48063D4E900101940002067
:102F300059404040014339D1D4F8A800B0F5800F82
:102F40001AD004DC50B1B0F5001F1ED10DE0B0F571
:102F5000C00F18D0B0F5000F17D115E09C480068DD
:102F600040F400309A49086011E0002104F10800A3
:102F700003F058F805460AE0002104F1280003F0A8
:102F800003F9054603E002E001E0012500BF00BFB0
:102F90005DB98F482C30006820F46000D4F8A81088
:102FA00008438B492C31086000E0A8464FF40062CA
:102FB000D4E900101140002013465940404001431D
:102FC00039D1D4F8AC00B0F1007F1AD004DC50B194
:102FD000B0F1807F1ED10DE0B0F1407F18D0B0F18C
:102FE000806F17D115E07A48006840F400307849C6
:102FF000086011E0002104F1080003F013F8054611
:103000000AE0002104F1280003F0BEF8054603E0C1
:1030100002E001E0012500BF00BF5DB96C482C3023
:10302000006820F0E060D4F8AC10084368492C3107
:10303000086000E0A8464FF00073D4E90001184092
:10304000002158404940084328D1E06CA8B110281D
:1030500004D0202809D0302810D10DE05C48006849
:1030600040F400305A4908600AE0022104F10800E7
:1030700002F0D8FF054603E002E001E0012500BFB1
:1030800000BF55B952482030006820F03000E16C94
:1030900008434F492031086000E0A8464FF48053B0
:1030A000D4E900101940002059404040014337D175
:1030B000206EB0F5005F1AD004DC50B1B0F5805F2F
:1030C0001ED10DE0B0F5405F18D0B0F5804F17D19C
:1030D00015E03F48006840F400303D49086011E0C9
:1030E000002104F1080002F09DFF05460AE00021DE
:1030F00004F1280003F048F8054603E002E001E08F
:10310000012500BF00BF55B931482430006820F4C4
:10311000E040216E08432E492431086000E0A846B3
:103120004FF40053D4E900101940002059404040AA
:10313000014335D1606EB0F5403F1ED007DC68B169
:10314000B0F5803F0BD0B0F5003F19D10EE0B0F5DF
:10315000802F13D0B0F5A02F12D110E012E0012182
:1031600004F1080002F05EFF05460BE0012104F1C6
:10317000280003F009F8054604E003E002E001E05E
:10318000012500BF00BF55B911482430006820F464
:10319000E020616E08430E492431086000E0A84633
:1031A0004FF48043D4E900011840002158404940C1
:1031B000084337D1D4F8B000B0F1405F20D009DC2B
:1031C00078B1B0F1805F0DD0B0F1005F1BD110E09D
:1031D0002C440258B0F1804F13D0B0F1A04F12D15F
:1031E00010E012E0012104F1080002F01BFF054687
:1031F0000BE0012104F1280002F0C6FF054604E0BF
:1032000003E002E001E0012500BF00BF4DB9FE4828
:10321000006820F0E040D4F8B0100843FA49086094
:1032200000E0A8464FF40042D4E90010114000200D
:10323000134659404040014329D1206FB0B1B0F14D
:10324000805F03D0B0F1005F11D108E0EE482C3868
:10325000006840F40030EC492C39086009E0012195
:1032600004F1080002F0DEFE054602E001E001255F
:1032700000BF00BF55B9E4480838006820F040504E
:10328000216F0843E0490839086000E0A8464FF084
:103290008072D4E90010114000201346594040408C
:1032A00001432AD1A06CB8B1012804D002280BD068
:1032B000032812D10FE0D4482C38006840F40030C5
:1032C000D1492C3908600AE0022104F1080002F01B
:1032D000A9FE054603E002E001E0012500BF00BFB2
:1032E00055B9C9480C38006820F00300A16C0843A8
:1032F000C5490C39086000E0A8464FF48002D4E9C3
:1033000000011040002113465840494008437DD138
:10331000BE48006840F48070BC490860FFF768F957
:10332000064606E0FFF764F9801B642801D90325EF
:1033300005E0B648006800F480700028F2D000BFB5
:1033400085BBB1481830006800F44070B4F8B41080
:1033500001F44071884213D0AB481830006820F463
:103360004077A9481830006840F48030A6491831E9
:1033700008600846006820F480300860084607604E
:10338000D4F8B400B0F5807F15D1FFF731F90646C7
:1033900009E0FFF72DF9801B41F28831884202D9FC
:1033A000032507E038E0984818300068C0F3400073
:1033B0000028EED000BF55BB00BFB4F8B40000F445
:1033C0004070B0F5407F0ED18F484838006820F437
:1033D0007C518F4AD4F8B400104041EA10108A4959
:1033E0004839086007E088484838006820F47C5075
:1033F000854948390860844818300068B4F8B4102A
:10340000C1F30B0108438049183101E005E001E0F8
:10341000086002E0A84600E0A8460122D4E90001C5
:1034200010400021134658404940084330D1E06F16
:1034300018281AD005DC48B1082808D0102817D160
:103440000CE0202812D0282812D110E012E001212F
:1034500004F1080002F0E6FD05460BE0012104F14D
:10346000280002F091FE054604E003E002E001E0DE
:10347000012500BF00BF55B96348001F006820F058
:103480003800E16F08436049091F086000E0A84662
:103490000222D4E90001104000211346584049405F
:1034A000084329D1A06F062816D2DFE800F00304F4
:1034B0000B12131412E0012104F1080002F0B2FD16
:1034C00005460BE0012104F1280002F05DFE0546EF
:1034D00004E003E002E001E0012500BF00BF55B9B0
:1034E0004948001F006820F00700A16F08434649C3
:1034F000091F086000E0A8460423D4E90010194021
:10350000002059404040014329D1D4F894000628B6
:1035100016D2DFE800F003040B12131412E00121AD
:1035200004F1080002F07EFD05460BE0012104F1E4
:10353000280002F029FE054604E003E002E001E075
:10354000012500BF00BF4DB92F48006820F00700DB
:10355000D4F8941008432C49086000E0A8462023C2
:10356000D4E900011840002158404940084337D1B0
:10357000D4F89000B0F1405F1ED007DC68B1B0F124
:10358000805F0BD0B0F1005F19D10EE0B0F1804F39
:1035900013D0B0F1A04F12D110E012E0002104F1DD
:1035A000080002F03FFD05460BE0022104F128006F
:1035B00002F0EAFD054604E003E002E001E0012537
:1035C00000BF00BF5DB91048001F006820F0E04058
:1035D000D4F8901008430C49091F086000E0A84681
:1035E0004023D4E9001019400020594040400143D5
:1035F0003CD1D4F89C00B0F5406F25D00EDCA0B1D2
:10360000B0F5806F12D005E05844025800480258C7
:10361000FFFCFF0FB0F5006F19D10EE0B0F5805F31
:1036200013D0B0F5A05F12D110E012E0002104F138
:10363000080002F0F7FC05460BE0022104F1280027
:1036400002F0A2FD054604E003E002E001E00125EE
:1036500000BF00BF4DB9FE48006820F4E050D4F828
:103660009C100843FA49086000E0A8468023D4E98A
:1036700000101940002059404040014335D1D4F892
:10368000A000B0F5C04F1ED007DC68B1B0F5005FF8
:103690000BD0B0F5804F19D10EE0B0F5004F13D02C
:1036A000B0F5204F12D110E012E0002104F1080023
:1036B00002F0B8FC05460BE0022104F1280002F0FC
:1036C00063FD054604E003E002E001E0012500BFE0
:1036D00000BF4DB9DE48006820F46040D4F8A01067
:1036E0000843DB49086000E0A8460823D4E900103D
:1036F0001940002059404040014317D1D4F88400BC
:10370000B0F5805F07D1022104F1280002F03CFDF2
:1037100008B14FF00108CE48001F006820F4405067
:10372000D4F884100843CA49091F08601023D4E95B
:1037300000101940002059404040014315D1D4F8F1
:103740009800B0F5807F07D1022104F1280002F033
:103750001BFD08B14FF00108BD48006820F440701F
:10376000D4F898100843BA4908604FF40022D4E90D
:10377000000110400021134658404940084327D11A
:10378000D4F8A40030B1B0F5803F0AD0B0F5003FC6
:103790000FD10DE0002104F1080002F043FC0546C2
:1037A00009E0022104F1280002F0EEFC054602E0E7
:1037B00001E0012500BF00BF4DB9A548006820F415
:1037C0004030D4F8A4100843A149086000E0A8469E
:1037D0004FF48023D4E900011840002158404940AB
:1037E00008432DD1D4F88800B0F5801F06D0B0F57D
:1037F000001F0CD0B0F5401F11D10FE094482C38B9
:10380000006840F4003092492C39086009E0012139
:1038100004F1280002F0B8FC054602E001E00125B1
:1038200000BF00BF5DB98A48001F006820F4401047
:10383000D4F8881008438649091F086000E0A846AC
:103840004FF48032D4E90001104000211346584063
:103850004940084325D1206D18B1B0F5803F10D103
:1038600008E07B482C38006840F4003078492C3957
:10387000086008E0022104F1080002F0D3FB0546CD
:1038800001E0012500BF00BF55B971480C38006840
:1038900020F48030216D08436D490C39086000E048
:1038A000A8464FF00052D4E9001011400020134602
:1038B00059404040014307D1022104F1280002F0A1
:1038C00063FC08B14FF001084FF40033D4E9000164
:1038D0001840002158404940084329D1D4F88000BD
:1038E000A0B1B0F5807F06D0B0F5007F0CD0B0F568
:1038F000407F0CD109E056482C38006840F4003075
:1039000053492C39086004E003E002E001E001259E
:1039100000BF00BF5DB94E48001F006820F4407032
:10392000D4F8801008434A49091F086000E0A846FF
:103930004FF48012D4E90010114000201346594082
:103940004040014309D142480838006820F0004057
:10395000616F08433E49083908604FF08052D4E94E
:1039600000101140002013465940404001430AD145
:1039700037484838006820F48040D4F8B81008432D
:103980003349483908604FF40012D4E9001011405F
:103990000020134659404040014309D12C480838C3
:1039A000006820F08070E16E0843294908390860FA
:1039B0004FF08042D4E900101140002013465940D6
:1039C0004040014311D100BF21484838006820F42D
:1039D00000401F494839086008460068D4F8BC1008
:1039E00008431B494839086000BF4FF00042D4E942
:1039F000001011400020134659404040014309D1B6
:103A000013480C38006820F04050616D084310499D
:103A10000C3908604FF40002D4E900101140002076
:103A200013465940404001430AD10948001F00682D
:103A300020F44000D4F88C1008430549091F0860A1
:103A4000012300216068184001224940504001E0F4
:103A500058440258014306D104F1080002F0E2FA8A
:103A6000054605B1A8460222002160681040494081
:103A70005040014307D1012104F1080002F0D2FABD
:103A8000054605B1A84604230020616819400422B8
:103A900040405140084307D1022104F1080002F0E0
:103AA000C1FA054605B1A846082300216068184000
:103AB000082249405040014306D104F1280002F099
:103AC00063FB054605B1A84610220021606810403E
:103AD00049405040014307D1012104F1280002F080
:103AE00053FB054605B1A84620220020616811401D
:103AF00040405140084307D1022104F1280002F060
:103B000043FB054605B1A846B8F1000F02D10020DD
:103B1000BDE8F0810120FBE72DE9F04104460D46A8
:103B200014B90120BDE8F081BD48006800F00F0025
:103B3000A8420ED2BA48006820F00F002843B849C6
:103B400008600846006800F00F00A84201D001207C
:103B5000E8E7207800F0040004280ED1B14920697C
:103B6000096801F07001884207D9AE48006820F06A
:103B7000700021690843AB490860207800F0080014
:103B8000082811D1A749091D6069096801F0700171
:103B9000884209D9A348001D006820F070006169BF
:103BA0000843A049091D0860207800F01000102883
:103BB00011D19C49091DA069096801F4E06188429E
:103BC00009D99848001D006820F4E060A169084305
:103BD0009449091D0860207800F02000202811D1A8
:103BE00090490831E069096801F07001884209D9FB
:103BF0008C480830006820F07000E169084389496A
:103C000008310860207800F0020002280ED18549B2
:103C1000E068096801F00F01884207D9814800680F
:103C200020F00F00E16808437E490860207800F02A
:103C30000100002850D07B48006820F47060A16823
:103C40000843784908606068022807D17548183829
:103C50000068C0F34040F8B9012063E760680328BA
:103C600007D1704818380068C0F34060A0B901203F
:103C700058E76068012807D16A4818380068C0F31F
:103C8000002048B901204DE7664818380068C0F3A5
:103C9000800008B9012045E762480838006820F034
:103CA0000700616808435F4908390860FEF7A0FC17
:103CB000064608E0FEF79CFC801B41F288318842F2
:103CC00001D903202EE757480838006800F0380073
:103CD0006168B0EBC10FEDD1207800F0020002283E
:103CE0000ED15049E068096801F00F01884207D2FF
:103CF0004C48006820F00F00E1680843494908601B
:103D00004748006800F00F00A8420ED944480068F8
:103D100020F00F002843424908600846006800F080
:103D20000F00A84201D00120FCE6207800F004003A
:103D300004280ED13B492069096801F070018842CE
:103D400007D23848006820F07000216908433549DF
:103D50000860207800F00800082811D13149091DB9
:103D60006069096801F07001884209D22D48001D80
:103D7000006820F07000616908432A49091D086045
:103D8000207800F01000102811D12649091DA069E3
:103D9000096801F4E061884209D22248001D0068E8
:103DA00020F4E060A16908431E49091D08602078DD
:103DB00000F02000202811D11A490831E069096873
:103DC00001F07001884209D216480830006820F0DE
:103DD0007000E169084313490831086000F0ACF84D
:103DE00010490968C1F303210F4A515C01F01F011A
:103DF00020FA01F70B48006800F00F001146085C3C
:103E000000F01F0027FA00F0084908600848076022
:103E100008480068FEF72EFC8046404682E6000017
:103E2000002000521844025838A90008100000244D
:103E30000C000024040000243F220260174A12688C
:103E400002F007024260154A0832126802F47062FA
:103E50008260124A0832126802F00F02C2600F4AF2
:103E60000832126802F0700202610C4A0C321268C9
:103E700002F070024261094A0C32126802F4E062F8
:103E80008261064A1032126802F07002C261044A6E
:103E9000126802F00F020A607047000010440258D6
:103EA0000020005210B500F047F80D490968C1F331
:103EB00003210C4A515C01F01F0120FA01F408486B
:103EC000006800F00F001146085C00F01F0024FAA3
:103ED00000F005490860054804600846006810BD08
:103EE0001844025838A90008100000240C000024CF
:103EF00000B5FFF7D7FF05490968C1F30211044A6D
:103F0000515C01F01F01C84000BD00001C44025874
:103F100038A9000800B5FFF7C5FF05490968C1F3D6
:103F20000221044A515C01F01F01C84000BD00009D
:103F30001C44025838A90008F0B5824E366806F0D5
:103F4000380636B1082E15D0102E15D0182E7DD17A
:103F500014E07C4E103E3668C6F3401646B1794EEA
:103F6000103E3668C6F3C107774E26FA07F000E028
:103F70007548E5E07548E3E07548E1E0714E1836B4
:103F8000366806F003046F4E18363668C6F305111E
:103F90006C4E1C36366806F001056A4E24363668CB
:103FA000C6F3CC0616FB05F601EE106AB8EE410A20
:103FB000002971D024B1012C50D0022C6DD16DE0BC
:103FC000604E103E3668C6F340163EB35D4E103E5E
:103FD0003668C6F3C1075C4E26FA07F301EE103AC5
:103FE000F8EE411A01EE101AB8EE411A81EE812A5C
:103FF0009FED581AC0EE011A524E20363668C6F3AD
:10400000080601EE106AB8EE411A31EE811AF7EE99
:10401000001A31EE211A62EE010A1EE001EE101ABA
:10402000B8EE411ADFED4C1A81EE812A9FED491A54
:10403000C0EE011A434E20363668C6F3080601EE7C
:10404000106AB8EE411A31EE811A00E076E0F7EE20
:10405000001A31EE211A62EE010A5BE001EE101A3D
:10406000B8EE411A9FED3D2AC2EE011A9FED391AB2
:1040700080EE012A334E20363668C6F3080601EE7C
:10408000106AB8EE411A32EE011AB7EE002A31EE8C
:10409000021A61EE810A3DE04EE01DE001EE101AC9
:1040A000B8EE411ADFED2E1A81EE812A9FED291A12
:1040B000C0EE011A234E20363668C6F3080601EE1C
:1040C000106AB8EE411A31EE811AF7EE001A31EE9D
:1040D000211A62EE010A1DE001EE101AB8EE411A33
:1040E0009FED1E2AC2EE011A9FED1A1A80EE012AD8
:1040F000144E20363668C6F3080601EE106AB8EE94
:10410000411A32EE011AB7EE002A31EE021A61EEC0
:10411000810A00BF00BF0B4E20363668C6F3462624
:10412000721C01EE102AB8EE411AC0EE811ABCEEE4
:10413000E11A11EE100A00E0002001E0034800BF80
:1041400000BFF0BD104402580090D00300093D00AC
:10415000001BB700000000460024744C0024744A81
:10416000001B374B2DE9F047044614B90120BDE888
:10417000F087207800F00100002870D0FA4800682D
:1041800000F03808F8481830D0F80090B8F1100F57
:1041900006D0B8F1180F0FD109F0030002280BD197
:1041A000F14810380068C0F3404000286AD06068C9
:1041B000002867D10120DAE700BF6068B0F5803FD2
:1041C00008D1E9481038006840F48030E6491039D9
:1041D00008602EE0606868B9E3481038006820F491
:1041E0008030E149103908600846006820F48020DA
:1041F00008601EE06068B0F5A02F0DD1DA481038D5
:10420000006840F48020D8491039086008460068EA
:1042100040F4803008600CE0D3481038006820F487
:104220008030D149103908600846006820F48020A9
:10423000086000BF606898B1FEF7DAF9054606E04D
:10424000FEF7D6F9401B642801D903208FE7C64842
:1042500010380068C0F340400028F1D012E012E0AE
:10426000FEF7C6F9054606E0FEF7C2F9401B6428D2
:1042700001D903207BE7BC4810380068C0F34040F8
:104280000028F1D100BF207800F00200022874D18C
:10429000B548006800F03808B3481830D0F80090EE
:1042A000B8F1000F05D0B8F1180F56D109F003008E
:1042B000D0BBAD4810380068C0F3800018B1E0688A
:1042C00008B9012053E7A8481038006820F0190009
:1042D000E1680843A44910390860FEF789F90546EA
:1042E00006E0FEF785F9401B022801D903203EE7CE
:1042F0009D4810380068C0F380000028F1D000BF4E
:10430000FEF770F941F2030188421AD8206940286B
:104310000BD195480C38006820F47C3040F4003014
:1043200091490C39086017E017E08F480C38006895
:1043300020F47C30216940EA01308B490C39086057
:104340000AE089480C38006820F0FE40217C40EAF1
:10435000016085490C39086066E0E06888B38248EE
:104360001038006820F01900E16808437E491039D0
:104370000860FEF73DF9054607E056E0FEF738F91C
:10438000401B022801D90320F1E677481038006865
:10439000C0F380000028F1D000BFFEF723F941F2FE
:1043A000030188421AD8206940280BD16E480C3886
:1043B000006820F47C3040F400306B490C39086010
:1043C00017E017E068480C38006820F47C30216959
:1043D00040EA013064490C3908600AE062480C3850
:1043E000006820F0FE40217C40EA01605E490C3903
:1043F000086019E05C481038006820F001005A4954
:1044000010390860FEF7F4F8054606E0FEF7F0F80C
:10441000401B022801D90320A9E653481038006840
:10442000C0F380000028F1D100BF207800F0100018
:1044300010287CD14C48006800F038084A481830F1
:10444000D0F80090B8F1080F06D0B8F1180F3DD1A0
:1044500009F00300012839D1434810380068C0F33F
:10446000002020B1E069802801D001207FE600BF54
:10447000FEF7B8F841F2030188421AD8206A2028D2
:104480000AD139480C38006820F0F84040F08040EC
:1044900035490C39086018E033480C38006820F0C2
:1044A000F84094F8201040EA81602F490C390860E8
:1044B0000BE02D48001F006820F07C5094F820107D
:1044C00040EA01602849091F086066E0E06978B3A6
:1044D00025481038006840F08000234910390860F2
:1044E000FEF786F8054606E0FEF782F8401B022834
:1044F00001D903203BE61C4810380068C0F30020B7
:104500000028F1D000BFFEF76DF841F203018842A8
:104510001CD8206A20280CD113480C38006820F0E1
:10452000F84040F0804010490C3908601AE035E04E
:104530001CE00D480C38006820F0F84094F820107A
:1045400040EA816008490C3908600BE00648001F0A
:10455000006820F07C5094F8201040EA0160024985
:10456000091F086019E0000010440258FA4800686A
:1045700020F08000F8490860FEF73AF8054606E0AA
:10458000FEF736F8401B022801D90320EFE5F24878
:104590000068C0F300200028F2D100BF207800F0AE
:1045A0000800082836D16069D0B1EB487430006843
:1045B00040F00100E84974310860FEF719F805463B
:1045C00006E0FEF715F8401B022801D90320CEE5CE
:1045D000E14874300068C0F340000028F1D019E0D1
:1045E000DD487430006820F00100DB497431086058
:1045F000FDF7FEFF054606E0FDF7FAFF401B022827
:1046000001D90320B3E5D44874300068C0F34000FA
:104610000028F1D1207800F02000202830D1A069B6
:10462000B8B1CD48006840F48050CB490860FDF730
:10463000DFFF054606E0FDF7DBFF401B022801D93E
:10464000032094E5C4480068C0F340300028F2D04D
:1046500016E0C148006820F48050BF490860FDF7AB
:10466000C7FF054606E0FDF7C3FF401B022801D93E
:1046700003207CE5B8480068C0F340300028F2D140
:10468000207800F0040004287DD1B448006840F48C
:104690008070B2490860FDF7ABFF054606E0FDF704
:1046A000A7FF401B642801D9032060E5AB480068E0
:1046B00000F480700028F2D000BFA068012808D163
:1046C000A5487030006840F00100A34970310860CF
:1046D0002DE0A06868B9A0487030006820F00100A3
:1046E0009D49703108600846006820F004000860A9
:1046F0001DE0A06805280DD197487030006840F093
:1047000004009549703108600846006840F00100D7
:1047100008600CE090487030006820F001008E497D
:10472000703108600846006820F00400086000BF8F
:10473000A068A0B1FDF75CFF054608E0FDF758FF53
:10474000401B41F28831884201D903200FE582489D
:1047500070300068C0F340000028EFD013E0FDF790
:1047600047FF054608E0FDF743FF401B41F2883153
:10477000884201D90320FAE4774870300068C0F31A
:1047800040000028EFD1606A00287DD072481030C8
:10479000006800F03800182877D0606A022875D1C8
:1047A0006D48006820F080706B490860FDF720FFBD
:1047B000054606E0FDF71CFF401B022801D9032037
:1047C000D5E465480068C0F340600028F2D100BF1E
:1047D000D4E90A1041EA00105F492831096840F223
:1047E000F332914308435C4928310860208E401E13
:1047F000C0F30800616B491E4FF47E4202EA41217A
:104800000843218F491ED20102EA014108433C219D
:10481000095D491E120202EA016108434E49303126
:10482000086000BF081F006820F00100091F086031
:104830004948343000684FF6F8718843A16C40EA6B
:10484000C10045493431086043482C30006820F0ED
:104850000C00216C084340492C3108600846006870
:1048600020F00200616C08433B492C310860084687
:10487000006840F4803008600846006840F400306A
:1048800008600846006802E093E038E01FE040F46A
:10489000802008600846006840F0010008602E484B
:1048A000006840F080702C490860FDF7A1FE0546C5
:1048B00006E0FDF79DFE401B022801D9032056E4C7
:1048C00025480068C0F340600028F2D071E022481B
:1048D000006820F0807020490860FDF789FE0546D9
:1048E00006E0FDF785FE401B022801D903203EE4C7
:1048F00019480068C0F340600028F2D159E016481A
:1049000028300768144830300668606A012821D0D2
:1049100007F00301A06A81421CD1C7F30511E06AC8
:10492000884217D1C6F30801206B401E814211D185
:10493000606B401EC6F3462188420BD1A06B401E1F
:10494000C6F30641884205D1E06B401EC6F30661FE
:10495000884205D001200AE4004402580048025869
:1049600015480068C0F3CC07A06CB84221D01248AB
:104970000838006820F001000F4908390860FDF789
:1049800037FE054600BFFDF733FE401BFBD00A484B
:1049900000684FF6F8718843A16C40EAC1000649EF
:1049A000086005480838006840F0010002490839ED
:1049B000086000204AE40000344402587047704701
:1049C0007047000030B502460B4600BF92F83C002D
:1049D000012801D1022030BD012082F83C0000BF37
:1049E000022082F83D001068416810688468214DFB
:1049F0001068A84203D0204D1068A84203D121F4CA
:104A000070015868014321F0700118680143106873
:104A10004160184D1068A8421BD01068B0F1804F5B
:104A200017D0164D1068A84213D0154D1068A84233
:104A30000FD0144D1068A8420BD00F4D1068A8423B
:104A400007D0114D1068A84203D0104D1068A8423D
:104A500005D124F080049868044310688460012024
:104A600082F83D0000BF002082F83C0000BF00BF7C
:104A7000B1E70000000001400004014000040040D4
:104A800000080040000C00400018004000400140B9
:104A900010B504460CB9012010BD94F83D0028B9AA
:104AA000002084F83C00204600F02AF8022084F818
:104AB0003D00211D206801F0CDFC012084F8480054
:104AC00000BF84F83E0001213F20015540200155E0
:104AD00041200155422001554320015500BF00BF30
:104AE000012084F844004520015546200155472007
:104AF000015500BF012084F83D000020CCE70000F4
:104B000038B504462068B0F1804F16D100BF184870
:104B1000006840F00100164908600846006800F08F
:104B20000100009000BF00BF002201211C20FDF702
:104B30007BFE1C20FDF764FE19E00E4920688842C8
:104B400015D100BF0A48006840F00200084908601B
:104B50000846006800F00200009000BF00BF00227D
:104B600003211D20FDF760FE1D20FDF749FE38BD25
:104B7000E844025800040040014691F83D00012835
:104B800001D001207047022081F83D000868C0680C
:104B900040F001000B68D8601C4B086898421BD09D
:104BA0000868B0F1804F17D0194B0868984213D0AD
:104BB000184B086898420FD0174B086898420BD0E2
:104BC000164B0868984207D0154B0868984203D0E6
:104BD000144B0868984210D108688068124B00EAAC
:104BE0000302062A0FD0B2F5803F0CD00868006897
:104BF00040F001000B68186005E00868006840F0AC
:104C000001000B6818600020BCE7000000000140B4
:104C10000004004000080040000C00400004014077
:104C200000180040004001400700010001460868EC
:104C3000C06820F001000A68D06000BF0868006A00
:104C400041F21112104050B90868006A92101040E9
:104C500028B90868006820F001000A68106000BFE9
:104C6000012081F83D000020704700002DE9F0414F
:104C700004460D46002700BF94F83C00012802D1ED
:104C80000220BDE8F081012084F83C0000BF022032
:104C900084F83D00206886684048064026F47F4638
:104CA000206886602868702826D00CDC00F00F0190
:104CB000002966D10011072863D2DFE800F05556BD
:104CC00057584B374100B0F1101F52D009DCB0F5F6
:104CD000805F10D0B0F5005F1BD0B0F5801F50D1C1
:104CE00046E0A0F580102038002843D0102842D09C
:104CF000202846D140E046E0D5E902136A682068E2
:104D000001F012FC2068866846F07706206886600D
:104D100039E0D5E902136A68206801F005FC2068D3
:104D2000806840F48040216888602CE0EA68696807
:104D3000206801F011FC5021206801F001FC22E004
:104D4000EA686968206801F01AFC6021206801F0B7
:104D5000F7FB18E0EA686968206801F0FDFB402174
:104D6000206801F0EDFB0EE000BF00BF00BF00BFF8
:104D700000BF00BF00BF00BF2968206801F0E0FB52
:104D800001E0012700BF00BF012084F83D0000BF03
:104D9000002084F83C0000BF384672E788FFCEFF51
:104DA000704770B504462068C6682068056905F03C
:104DB0000200022819D106F00200022815D1401F76
:104DC00021680861012020772068806900F00300D5
:104DD00018B12046FFF7E4FF05E0204600F0ADF8EB
:104DE000204600F0ABF80020207705F004000428EE
:104DF00019D106F00400042815D1C04321680861C8
:104E0000022020772068806900F4407018B12046A5
:104E1000FFF7C6FF05E0204600F08FF8204600F0BF
:104E20008DF80020207705F00800082819D106F039
:104E30000800082815D1C0432168086104202077A4
:104E40002068C06900F0030018B12046FFF7A8FFF2
:104E500005E0204600F071F8204600F06FF80020D1
:104E6000207705F01000102819D106F01000102846
:104E700015D1C04321680861082020772068C069E7
:104E800000F4407018B12046FFF78AFF05E0204685
:104E900000F053F8204600F051F80020207705F08C
:104EA000010048B106F0010030B16FF00100216847
:104EB0000861204600F044F805F08000802804D006
:104EC00005F40050B0F5005F0AD106F0800080289C
:104ED00006D16FF40250216808612046FFF76FFD8C
:104EE00005F48070B0F5807F0AD106F0800080283C
:104EF00006D16FF48070216808612046FFF75EFDDF
:104F000005F04000402809D106F04000402805D1B6
:104F1000C04321680861204600F02EF805F020000B
:104F2000202809D106F02000202805D1C04321689F
:104F300008612046FFF744FD70BD704770470000D0
:104F400010B5044608492068884202D1FDF756FB97
:104F500009E006492068884205D10548FFF766FE4A
:104F600001200449087010BD000001400004004009
:104F700084670024800000247047014600BF91F838
:104F80008400012801D102207047012081F88400AB
:104F900000BF2420C1F8880008680268086800681B
:104FA00020F001000B68186022F0005200204866D3
:104FB000086802602020C1F8880000BF002081F846
:104FC000840000BF00BFDFE77047704770B504463C
:104FD0000D4600BF94F88400012801D1022070BD65
:104FE000012084F8840000BF2420C4F888002068D1
:104FF00006682068006820F00100216808602068C9
:10500000806820F06060284321688860204601F0B5
:10501000CBFA206806602020C4F8880000BF00207A
:1050200084F8840000BF00BFD9E770B504460D4680
:1050300000BF94F88400012801D1022070BD012036
:1050400084F8840000BF2420C4F888002068066823
:105050002068006820F001002168086020688068EE
:1050600020F06040284321688860204601F09CFAC7
:10507000206806602020C4F8880000BF002084F863
:10508000840000BF00BFD9E7704770477047000039
:1050900010B5044600BF00BF216851E8001F21F48D
:1050A0009070226842E800010029F5D100BF00BFDE
:1050B00000BF2168083151E8001F334A01EA0200AD
:1050C0002168083141E80002002AF2D100BFE06EF9
:1050D00001280CD100BF00BF216851E8001F21F05A
:1050E0001000226842E800010029F5D100BF2068C5
:1050F000806800F04000402835D100BF00BF216823
:10510000083151E8001F21F040002168083141E8D2
:105110000002002AF3D100BFD4F8800068B11B4818
:10512000D4F880100865D4F88000FCF70BF948B378
:10513000D4F88000016D884724E00020A4F85E00C8
:10514000A0650F20216808622068806940F008008F
:10515000216888612020C4F88C000020E066204689
:10516000FFF794FF0EE00020A4F85E00A0650F207A
:10517000216808622020C4F88C000020E0662046E8
:10518000FFF784FF002010BDFEFFFFEFF767000868
:1051900010B5044607492068884209D1064880694D
:1051A000401C0549886108202168086203F07EFDE3
:1051B00010BD000000440040300100240146D1F839
:1051C000900070472DE9F04704462068C5692068C3
:1051D00006682068876840F60F0005EA0009B9F103
:1051E000000F0FD105F0200060B106F0200010B9CB
:1051F00007F0805030B1606F10B12046616F884772
:10520000BDE8F087B9F1000F7ED0F848384018B9F2
:10521000F74830400028F7D005F0010058B106F4F7
:10522000807040B1012021680862D4F8900040F0FD
:105230000100C4F8900005F0020058B107F0010029
:1052400040B1022021680862D4F8900040F00400C8
:10525000C4F8900005F0040058B107F0010040B117
:10526000042021680862D4F8900040F00200C4F8DD
:10527000900005F0080070B106F0200010B9DB487E
:10528000384040B1082021680862D4F8900040F00E
:105290000800C4F8900005F4006060B106F080607A
:1052A00048B14FF4006021680862D4F8900040F0E3
:1052B0002000C4F89000D4F89000002852D005F0E7
:1052C000200050B106F0200010B907F0805020B146
:1052D000606F10B12046616F8847D4F890A02068B5
:1052E000806800F04000402802D00AF0280070B327
:1052F000204601F099FA2068806800F040004028BC
:1053000026D100BF00BF00E02DE02168083151E840
:10531000001F21F040002168083141E80002002A06
:10532000F1D100BFD4F8800068B1B248D4F8801041
:105330000865D4F88000FCF705F898B1D4F880002F
:10534000016D88470EE02046FFF722FF0AE003E0E8
:105350002046FFF71DFF05E02046FFF719FF00205C
:10536000C4F890004CE7E06E01287DD105F01000F4
:10537000002879D006F010000028FAD0102021680B
:1053800008622068806800F0400040286DD1D4F8A1
:1053900080000068984988426BD0D4F8800000688B
:1053A00095491831884264D0D4F880000068924949
:1053B000303188425DD0D4F8800000688E49483191
:1053C000884256D0D4F8800000688B49603188420A
:1053D0004FD0D4F88000006887497831884248D09F
:1053E000D4F88000006884499031884241D0D4F8D4
:1053F000800000688049A83188423AD0D4F8800003
:1054000000687E49884234D0D4F8800000687B4927
:10541000183188422DD0D4F88000006877493031A7
:10542000884226D0D4F88000006874494831884208
:105430001FD0D4F88000006870496031884218D0CD
:10544000D4F8800000686D497831884211D0D4F8D2
:10545000800000686949903188420AD0D4F8800001
:1054600000686649A83102E0CAE07BE001E08842BA
:1054700004D1D4F880000068406803E0D4F88000CC
:10548000006840681FFA80F8B8F1000F58D0B4F8EF
:105490005C00404554DDA4F85E80D4F88000C0690B
:1054A000B0F5807F40D000BF00BF216851E8001FE9
:1054B00021F48070226842E800010029F5D100BF84
:1054C00000BF00BF2168083151E8001F21F0010032
:1054D0002168083141E80002002AF3D100BF00BF73
:1054E00000BF2168083151E8001F21F04000216809
:1054F000083141E80002002AF3D100BF2020C4F89F
:105500008C000020E06600BF00BF216851E8001F4A
:1055100021F01000226842E800010029F5D100BF07
:10552000D4F88000FBF7A0FC02202067B4F85C00F0
:10553000B4F85E20801A81B22046FFF745FD10E0E6
:10554000B4F85C0040450CD1D4F88000C069B0F5D7
:10555000807F06D102202067B4F85C102046FFF758
:1055600033FD4DE634F85C0F6188401A1FFA80F86D
:1055700060885C3CC8B3B8F1000F36D000BF00BFF4
:10558000216851E8001F21F49070226842E8000170
:105590000029F5D100BF00BF00BF2168083151E8E4
:1055A000001F124AD24301EA02002168083141E893
:1055B0000002002AF1D100BF2020C4F88C00002096
:1055C000E066606700BF00BF216851E8001F21F05E
:1055D0001000226842E800010029F5D100BF022036
:1055E000206741462046FFF7EFFC09E60100001066
:1055F00020010004E367000810000240100402408C
:1056000005F4801050B107F4800038B14FF48010D9
:10561000216808622046FFF738FDF1E505F08000BB
:1056200058B106F0800010B907F4000028B1A06F4F
:1056300010B12046A16F8847E2E505F0400030B187
:1056400006F0400018B1204601F024F9D8E505F431
:10565000000030B106F0804018B12046FFF714FD7D
:10566000CEE505F0807030B106F0004018B120465C
:10567000FFF7ABFCC4E500BFC2E510B504460CB9AA
:10568000012010BDA06900B100E000BFD4F888007F
:1056900028B9002084F88400204600F02BF824204C
:1056A000C4F888002068006820F0010021680860C4
:1056B000A06A10B1204600F0A3FF204601F004FCD0
:1056C000012800D1DDE72068406820F4904021687F
:1056D00048602068806820F02A002168886020687F
:1056E000006840F0010021680860204601F004F8DD
:1056F000C7E7000010B5B8B00446142132A8FBF784
:10570000FFF8C02102A8FBF7FBF864492068884233
:1057100040D101210020CDE90210219002A8FDF71F
:1057200047FB08B1FBF702FA00BF5D48006840F094
:1057300010005B4908600846006800F01000019006
:1057400000BF00BF00BF56481038006840F001009D
:105750005349103908600846006800F001000190C4
:1057600000BF00BF4FF4C060329002203390002091
:105770003490032035900720369032A94948FCF731
:1057800025FE002205212520FDF74EF82520FDF7F6
:1057900037F881E044492068884240D10221002046
:1057A000CDE90210209002A8FDF702FB08B1FBF73B
:1057B000BDF900BF3A480838006840F40030384965
:1057C000083908600846006800F40030019000BF06
:1057D00000BF00BF32481038006840F00100304977
:1057E000103908600846006800F00100019000BF11
:1057F00000BF0C203290022033900020349035906E
:105800000720369032A92748FCF7E0FD0022052149
:105810002620FDF709F82620FCF7F2FF3CE023499B
:105820002068884238D102210020CDE90210209062
:1058300002A8FDF7BDFA08B1FBF778F900BF1848D8
:105840000838006840F48020154908390860084687
:10585000006800F48020019000BF00BF00BF104826
:105860001038006840F002000D4910390860084601
:10587000006800F00200019000BF00BF4FF44060DC
:1058800032900220339000203490359007203690DB
:1058900032A90748FCF79AFD38B010BD001001404E
:1058A000F044025800000258004400400048004004
:1058B0000004025870B504460D461646D4F88C0014
:1058C000202821D105B10EB9012070BD0020E0666D
:1058D0000E492068884211D02068406800F400001A
:1058E00060B100BF00BF216851E8001F41F0806037
:1058F000226842E800010029F5D100BF324629465E
:10590000204601F0A7FDE0E70220DEE7000C00588A
:1059100010B5044605492068884205D1044800783E
:1059200003F0A6F803F0C2F910BD000000440040E7
:10593000900100242DE9F84F04460E46174699467B
:10594000D4F88800202854D106B117B90120BDE849
:10595000F88F00205434E06321206063FCF748FE98
:10596000824627806780543CA068B0F5805F04D1F0
:10597000206910B90025B04602E035464FF0000816
:1059800020E05346002280212046CDF8009001F00F
:105990000FFE20B12020C4F888000320D7E745B9C6
:1059A000B8F80000C0F308002168886208F1020816
:1059B00003E02878216888626D1CB4F85600401E08
:1059C000A4F85600B4F856000028DAD15346002255
:1059D00040212046CDF8009001F0EAFD20B12020C2
:1059E000C4F888000320B2E72020C4F88800002013
:1059F000ADE70220ABE7704700BFFEE72DE9F041BD
:105A000004460D4600F0D6FA204600F0BEFA00F03B
:105A100087FA284600F0B9FA00F082FA00F0CAFAD4
:105A200044F0010000F0B1FA00F07AFA00F087FAD1
:105A30000746002000F09DFA00F081FA064601209A
:105A400000F097FA00F0C4FA47EA06284046BDE89D
:105A5000F081000070B504460D4616463421A220A0
:105A6000FFF7CCFF00B200EE100AB8EEC00B9FEDBE
:105A7000121B20EE010B84ED000B3521A220FFF755
:105A8000BDFF00B200EE100AB8EEC00B9FED0A1B7E
:105A900020EE010B85ED000B3621A220FFF7AEFFB3
:105AA00000B200EE100AB8EEC00B9FED031B20EE13
:105AB000010B86ED000B70BD1BE8EB432800403F57
:105AC00070B504460D4616463D21A220FFF796FF0D
:105AD00000B200EE100AB8EEC00B9FED121B20EED4
